:2000A5009003A0E0FEA3E0FFBE0171BF006EC2AF900001E0FEA3E0CE25E0CE33FFEE245EA5
:2000C500F582EF341FF583E493FEA3E493900036EEF0900003E0FDA3E0FF7C00EEB5050A97
:2000E500ECB50706D2AF90000122900036E0FF75F003A4241EF582740035F0F58378F1E055
:20010500F6A3E008F6A3E008F6900003EFF0E4A3F090001DE07003120370D2AF9000002241
:20012500AFF0AE83E582900039F0EEA3F0EFA3F0900037E0FEA3E0EE75F017A42422F990C2
:200145000039E0FDA3E0FEA3E08D04A704E904F88E05A605740F29FF7E007D408F828E8319
:200165008DF022AFF0AE83E58290003EF0EEA3F0EFA3F090003CE0FEA3E0FF90039EEEF0A8
:20018500EFA3F0900003C007C006121F1EAC82AD83D006D007EC241EFCED3400FD8C828D7B
:2001A50083E0F510A3E0F511A3E0F51290003EE0F8A3E0FAA3E08510828511838512F0E87A
:2001C500121F038C828D83E0FCA3E0FDA3E0FB0CBC00010D8C828D838BF0EE121F03A3EFCB
:2001E500021F03AFF0AE83E582900043F0EEA3F0EFA3F0900043E0FDA3E0FEA3E0FF900096
:2002050041E0FBA3E0FC900037EBF0ECA3F08D828E838FF0C004C003120125AD82AE83AFB0
:20022500F0D003D00490003CEBF0ECA3F08D828E838FF0C004C003120168D003D004ECCBFD
:2002450025E0CB33FCEB245EF582EC3421F583E493FEA3E493FF900001E0FCA3E0FD9000F2
:2002650001EE4CF0EF4DA3F00200A5AF83E582900046F0EFA3F0C2AF900046E0FEA3E0CE81
:2002850025E0CE33FFEE245EF582EF3421F583E493FEA3E493FFEEF4FEEFF4FF900001E0F0
:2002A500FCA3E0FD900001EE5CF0EF5DA3F0D2AF22900001E4F0A3F090001DF0900048F013
:2002C500A3F0900048E0FEA3E0FF90039EEEF0EFA3F0900003C007C006121F1EAC82AD83F0
:2002E500D006D007EC241EF582ED3400F583EC2405FCED3400FD7B00ECF0EDA3F0EBA3F08A
:200305000EBE00010FC3EE9408EF940040BC22900001E0FEA3E0CE25E0CE33FFEE245EF5E4
:2003250082EF341FF583E493FEA3E4939003A07401F0E4A3F0EE75F003A4241EF5827400B7
:2003450035F0F583E0FCA3E0FDA3E0FF78F1A60408A60508A607900003EEF0E4A3F078EE54
:0B036500A60408A60508A60702039ED8
:201F5E00000000000100000002000000010000000300000001000000020000000100000058
:201F7E00040000000100000002000000010000000300000001000000020000000100000034
:201F9E00050000000100000002000000010000000300000001000000020000000100000013
:201FBE000400000001000000020000000100000003000000010000000200000001000000F4
:201FDE000600000001000000020000000100000003000000010000000200000001000000D2
:201FFE000400000001000000020000000100000003000000010000000200000001000000B4
:20201E00050000000100000002000000010000000300000001000000020000000100000092
:20203E00040000000100000002000000010000000300000001000000020000000100000073
:20205E00070000000100000002000000010000000300000001000000020000000100000050
:20207E00040000000100000002000000010000000300000001000000020000000100000033
:20209E00050000000100000002000000010000000300000001000000020000000100000012
:2020BE000400000001000000020000000100000003000000010000000200000001000000F3
:2020DE000600000001000000020000000100000003000000010000000200000001000000D1
:2020FE000400000001000000020000000100000003000000010000000200000001000000B3
:20211E00050000000100000002000000010000000300000001000000020000000100000091
:20213E00040000000100000002000000010000000300000001000000020000000100000072
:10215E000100020004000800100020004000800072
:02220C000000D0
:200370000581C0E0C0F0C082C083EFC0E0EEC0E0EDC0E0ECC0E0EBC0E0EAC0E0E9C0E0E856
:20039000C0E0C0D079EE8782098783E581F079EE78F18682A78208098683A783E085E08139
:2003B000D0D0D0E0F8D0E0F9D0E0FAD0E0FBD0E0FCD0E0FDD0E0FED0E0FFD083D082D0F0CC
:2003D000D0E01581D2AF2275821D758300E014F079EE78F18682A78208098683A783E0858A
:2003F000E081D0D0D0E0F8D0E0F9D0E0FAD0E0FBD0E0FCD0E0FDD0E0FED0E0FFD083D082EB
:20041000D0F0D0E01581D2AF320581C0E0C0F0C082C083EFC0E0EEC0E0EDC0E0ECC0E0EB97
:11043000C0E0EAC0E0E9C0E0E8C0E0C0D0AE82AF838E
:060000000200490204E5C4
:03000B000207A049
:0300130002056A79
:03001B000207A138
:030023000206C60C
:01002B0032A2
:01003300329A
:03003B000208C8F0
:030043000205F7BC
:0300A20002004613
:03004600020B1496
:20044100AF83E58290004AF0EFA3F090004AE0FEA3E0FFBE0005BF0002803390004C74E80D
:20046100F07403A3F090004CE0FCA3E0FD1CBCFF011DEC4D60047B0180027B00EB70EE1ED7
:20048100BEFF011F90004AEEF0EFA3F080C590004AEEF0EFA3F02290004EE0FEA3E0FFC3A2
:2004A100EE9402EF94004002801090004EE02401F0A3E03400F0C2AF800280FE2290004E77
:2004C100E0F5F0A3E045F07002801690004EE024FFFEA3E034FFFF90004EEEF0EFA3F08044
:2004E10002D2AF22C021C0E0C0F0C082C083C007C006C005C004C003C002C001C000C0D0F4
:2005010075D008C2AF75821D758300E004F078EE8682088683E581F078DAE885E0819000B7
:200521006475D00012044175D008B2A320B202800975D0001203D775D00890000175D00067
:2005410012106F75D0001203D775D008D0D0D000D001D002D003D004D005D006D007D083FC
:20056100D082D0F0D0E0D02132C021C0E0C0F0C082C083C007C006C005C004C003C002C084
:2005810001C000C0D075D008C2AF75821D758300E004F078EE8682088683E581F078DAE85C
:2005A10085E08190006475D00012044175D00820B302800975D0001203D775D0089001DC2E
:2005C100E070028002801290000275D00012106F75D0001203D775D008D0D0D000D001D0BD
:2005E10002D003D004D005D006D007D083D082D0F0D0E0D02132C021C0E0C0F0C082C083E1
:20060100C007C006C005C004C003C002C001C000C0D075D008C2AF75821D758300E004F08F
:2006210078EE8682088683E581F078DAE885E081E59A20E102800B539AFD90010E7401F0C9
:20064100805D539AFC900199E0FEA3E0FF90019BE0FCA3E0FDEEB50C0EEFB50D0A9001991F
:20066100742DF07401A3F0900199E0FEA3E0FF8E828F83E59BF0900199E0FEA3E0FF8E822A
:200681008F83E0FEBE0D0C90000E75D00012106F75D008900199E02401F0A3E03400F07596
:2006A100D0001203D775D008D0D0D000D001D002D003D004D005D006D007D083D082D0F08F
:2006C100D0E0D02132C021C0E0C0F0C082C083C007C006C005C004C003C002C001C000C0B4
:2006E100D075D008C2AF75821D758300E004F078EE8682088683E581F078DAE885E0812076
:200701009803020772C2989003A7E0FEA3E0FF9003A9E0FCA3E0FDEEB50C0EEFB50D0A902E
:2007210003A77499F07400A3F09003A7E0FEA3E0FF8E828F83E599F09003A7E0FEA3E0FF46
:200741008E828F83E0F5998E828F83E0FEBE0D0C90000F75D00012106F75D0089003A7E055
:20076100FEA3E0FF9003A774012EF0E43FA3F08008C29990008E7401F075D0001203D77569
:20078100D008D0D0D000D001D002D003D004D005D006D007D083D082D0F0D0E0D0213232DA
:2007A100C0E0C0F0C082C083C0D075D0089001DCE070030208489001D6E0FEA3E0FFC3EEFC
:2007C1009490EF940140030208419001DBE0FFBF0800401D9001DBE4F09001D8E02401F0D5
:2007E100A3E03400F09001D6E02401F0A3E03400F09001DBE02401F09001D8E0FDA3E0FE26
:20080100A3E0FF8D828E838FF0121F3E25E08D828E838FF0121F039001D8E0FDA3E0FEA305
:20082100E0FF8D828E838FF0121F3EFCA2A7E433FB420C8D828E838FF0EC121F030208BD9F
:20084100C28EC28C0208BD9001D6E0FEA3E0FFC3EE9490EF94014002805E9001DBE0FFBFE8
:200861000800401D9001D8E02401F0A3E03400F09001D6E02401F0A3E03400F09001DBE4BA
:20088100F09001D8E0FDA3E0FEA3E0FF8D828E838FF0121F3E339200928C8D828E838FF08E
:2008A100121F3E25E0FC8D828E838FF0121F039001DBE02401F08004C28EC28CD0D0D0837E
:2008C100D082D0F0D0E032C0E0C0F0C082C083C0D075D008C2D89001D4E0FEA3E0FF8EEA9A
:2008E1008FFA9001D4744C2EF074043FA3F09001DCE0700302098E9001D6E0FEA3E0FFC3FE
:20090100EE9490EF940140030209829001DBE0FFBF0800401D9001DBE4F09001D8E0240153
:20092100F0A3E03400F09001D6E02401F0A3E03400F09001DBE02401F09001D8E0FDA3E0F2
:20094100FEA3E0FF8D828E838FF0121F3E25E08D828E838FF0121F039001D8E0FDA3E0FE69
:20096100A3E0FF8D828E838FF0121F3EFCA2A7E433FB420C8D828E838FF0EC121F03020A76
:2009810003C2DEC28C9001DCE4F0020A039001D6E0FEA3E0FFC3EE9490EF94014002805ED5
:2009A1009001DBE0FFBF0800401D9001D8E02401F0A3E03400F09001D6E02401F0A3E034AF
:2009C10000F09001DBE4F09001D8E0FDA3E0FEA3E0FF8D828E838FF0121F3E339201928CAB
:2009E1008D828E838FF0121F3E25E0FC8D828E838FF0121F039001DBE02401F08004C2DE8F
:200A0100C28CD0D0D083D082D0F0D0E032B2A39001F412044180F6AD81E4FEFFED24FEFDDE
:200A2100EE34FFFE900050EDF0EEA3F0EFA3F0900053F0A3F0900053E0FEA3E0FF9000504D
:200A4100E0FBA3E0FCA3E0FD8B008C018D02900093E8F090216E75F080C007C006C005C003
:200A610004C003120D80D003D004D005D006D0078B828C838DF0121F3E900093F0902172A8
:200A810075F080C007C006C005C004C003120D80D003D004D005D006D007900093EEF0903E
:200AA100217775F080C007C006C005C004C003120D80D003D004D005D006D0071BBBFF0141
:200AC1001C0EBE00010FC3EE9414EF94005003020A4922758C72758A72758F01438EC07588
:200AE100892222C28290012C120441D28222D2AAD28AD2A8D28875B8022290004EE4F0A308
:200B0100F0120AD4120AE4121747120F28121368020AEF120AFB1202B67D0E7E0A7F809030
:200B210000417407F0E4A3F08D828E838FF01201E8120CB112031490217A75F080120D16BA
:030B410080F5221A
:1A216E0053503D004053503D00693D007377697463685F6661696C0D0A000D
:02220E00341288
:200B4400900000120F85900000120FB2C2A0900055E4F0900055E0FF9003E8C00712044180
:200B6400D0070FBF010040F0D2A0900000120FB280DA22B2A1900056E4F0900056E0FF90E8
:200B840003E8C007120441D0070FBF010040F0B2A190000012106F80DA90000F120FB290A2
:200BA40000FD7432F090005775F000120E0C7457C0E07400C0E0E4C0E012115B1581158179
:200BC400158180D59003E81204417488C0E07421C0E07480C0E012115B158115811581901F
:200BE40000011204417496C0E07421C0E07480C0E012115B15811581158190000E120FB275
:200C040090019D7432F090005C75F00012123690005C75F000120D1680E022900001120FA7
:200C2400859003A4E4F0900001120FB2900001120FB29003A4E0FF7E008F828E831213C6B7
:200C4400900001120FB29003A4E0FFBF0800400280099003A4E02401F080059003A4E4F0C8
:200C64009003A4E0FF7E008F828E831213C680D0900002120F85900002120FB2900002123E
:200C84000FB2C2AF20B5109003A4E0FF7E008F828E8312189B800E9003A4E0FF7E008F828B
:200CA4008E8312179390000A1213C680CF7DC87E0B7F809000417403F0E4A3F08D828E83F3
:200CC4008FF01201E87D1F7E0C7F80900041E4F0A3F08D828E838FF01201E87D747E0C7FA5
:130CE400809000417401F0E4A3F08D828E838FF00201E846
:1F21880041542B4349504D55583D310D0A0041542B4349505345525645523D310D0A0025
:0122100000CD
:200CF700E58290008FF0E0F59920990890008EE0700280F5C29990008EA299E433F022AFC7
:200D1700F0AE83E582900090F0EEA3F0EFA3F090008EE4F0900090E0FDA3E0FEA3E0FF8DA2
:200D3700828E838FF0121F3EF599A3AD82AE83900090EDF0EEA3F0EFA3F020990890008EAB
:200D5700E0700280F5C29990008EA299E433F08D828E838FF0121F3E70C5900090EDF0EECC
:200D7700A3F0EFA3F090000022AFF0AE83E582900094F0EEA3F0EFA3F0900094E0FDA3E0C3
:200D9700FEA3E0FF8D828E838FF0120D16758230120CF7758278120CF7900093E0C4540FFE
:200DB700900097F0900098E4F0900098E0FF900097E0FEBE0A0040028011900097E0243007
:200DD700F582C007120CF7D007800F900097E02437F582C007120CF7D007900093E0FE9026
:200DF7000097740F5EF00FBF020040C29021A775F080020D16AFF0AE83E5829000FEF0EE9D
:200E1700A3F0EFA3F0C2AF9003A5E0FEA3E0FF900102EEF0EFA3F0E4A3F0900101F0900021
:200E3700FEE0FDA3E0FEA3E0FF900101E0FC9000FDE07A0024FDFBEA34FFFA8C007900C36D
:200E5700E89BE964808AF063F08095F050499003A5E0FAA3E0FB8A828B83E0FABA0D0280F3
:200E7700369003A5E0FAA3E0FB8A828B83E0FA8D828E838FF0121F03A3AD82AE839000FE3D
:200E9700EDF0EEA3F0EFA3F09003A5E02401F0A3E03400F00C80979000FEE0FDA3E0FEA3D5
:200EB700E0FF8D828E838FF0740D121F039000FE74012DF0E43EA3F0EFA3F09000FEE0FD26
:200ED700A3E0FEA3E0FF8D828E838FF0740A121F039000FE74012DF0E43EA3F0EFA3F090C0
:200EF70000FEE0FDA3E0FEA3E0FF8D828E838FF0E4121F03D2AF900102E0FDA3E0FEA3E051
:200F17009003A5E0FBA3E0FCEBC39DFDEC9E8D8222438EC0758922438780759850758DFDCE
:200F3700758BFDD28EC2ABD2AC9001A5E4F09001A674BFF0E4A3F090009975F0001214447F
:200F570090000F120F8590000F120FB29003A57499F07400A3F09003A77499F07400A3F049
:0E0F77009003A974632499F0E43400A3F022DF
:0321A7000A0D001E
:0622110099009900FC0099
:200F8500AF83E582900105F0EFA3F0900105E0FEA3E0FFEE24ABF582EF3403F5837401F07E
:200FA500EE24BBF582EF3403F583E4F022AF83E582900107F0EFA3F0900107E0FEA3E0FFB9
:200FC500C374109EE49F5017900107E0FEA3E0900093EEF09021AA75F080120D8080FE9056
:200FE5000107E0FEA3E0FFEE24ABF582EF3403F583E0FFBF0115900107E0FEA3E0FFEE24F4
:20100500ABF582EF3403F583E4F022C2AF900003E0FEA3E0CE25E0CE33FFEE245EF582EF07
:201025003421F583E493FEA3E493FFEEF4FCEFF4FD900001E0FAA3E0FB900001EC5AF0EDF5
:201045005BA3F0900107E0FCA3E0FDEC24BBFCED3403FD8C828D83E07A004206EA42078C42
:20106500828D83EEF0D2AF0200A5AF83E582900109F0EFA3F0900109E0FEA3E0FFC37410ED
:201085009EE49F40028017900109E0FEA3E0900093EEF09021C275F080120D8080FE90014F
:2010A50009E0FEA3E0FFEE24ABFEEF3403FF8E828F83E0600302115AC2AF900109E0FEA384
:2010C500E0FFEE24BBFEEF3403FF8E828F83E07018900109E0FEA3E0FFEE24ABF582EF3461
:2010E50003F5837401F0D2AF22900109E0FEA3E0FFEE24BBFEEF3403FF8E828F83E0FD750A
:20110500F002A4245EF582741F35F0F583E493FBA3E493CB25E0CB33FCEB245EFBEC34210C
:20112500FC8B828C83E493F9A3E493E9F452058E828F83EDF08B828C83E493FBA3E493FC31
:16114500900001E0FEA3E0FF900001EB4EF0EC4FA3F01200A52242
:2021AA006E3E31362C696E206765745F73656D6170686F72652829006E3E31362C696E20F5
:1421CA0072656C656173655F73656D6170686F7265282900AC
:202217000000000000000000000000000000000000000000000000000000000000000000A7
:20115B00C013858113E51324FBFF90010EE4F0E51324FBF886040886050886068C828D8321
:20117B008EF0121F3EFCBC2554E51324FBF806B600020806E51324FBF886040886050886A1
:20119B00068C828D838EF0121F3EFC7E00BC786ABE0067EF14FEFF8E01879BE51324FBF826
:2011BB0006B60002080690010EE07007E59A20E10280F3539AFD90010EE4F0803DE5132427
:2011DB00FBF886040886050886068C828D838EF0121F3EF59BE51324FBF874012CF6E43DEE
:2011FB0008F608A60690010EE07007E59A20E10280F390010EE4F0539AFDE51324FBF88645
:20121B00040886050886068C828D838EF0121F3E600302116A900000D01322AFF0AE83E553
:20123B008290019EF0EEA3F0EFA3F0C2AF9001A1E4F090019EE0FDA3E0FEA3E0FF9001A137
:20125B00E0FC90019DE07A0024FDFBEA34FFFA8C007900C3E89BE964808AF063F08095F0F2
:20127B004003021308900197E0FAA3E0FB8A828B83E0FABA0D028057900197E0FAA3E0FB5F
:20129B0090019BE0F8A3E0F9EAB5000EEBB5010A900197742DF07401A3F0900197E0FAA3F5
:2012BB00E0FB8A828B83E0FA8D828E838FF0121F03A3AD82AE8390019EEDF0EEA3F0EFA34F
:2012DB00F0900197E02401F0A3E03400F0801A900197E02401F0A3E03400F0900197E024B5
:2012FB0001F0A3E03400F080040C02125D90019EE0FDA3E0FEA3E0FF8D828E838FF0740D0B
:20131B00121F0390019E74012DF0E43EA3F0EFA3F090019EE0FDA3E0FEA3E0FF8D828E8357
:20133B008FF0740A121F0390019E74012DF0E43EA3F0EFA3F090019EE0FDA3E0FEA3E0FF5A
:20135B008D828E838FF0E4121F03D2AF22759A5075AF01759CFD438E14900193740FF07496
:20137B0001A3F0900191740FF07401A3F0900195741D240FF0E43401A3F0900199742DF0E0
:20139B007401A3F0900197742DF07401A3F090019B7463242DF0E43401A3F090000E120FBA
:0B13BB008590000E120FB2900000227F
:2013C600AF83E5829001A2F0EFA3F0C2AFC28290012C120441D2829000141204419001A47C
:2013E600E4F09001A4E0FFC280900001C007120441D007EF75F002A424DEF582742135F00A
:20140600F583E493FDA3E493FE9001A2E0FBA3E0FCEB5205EC5206ED4E24FF9281900001AD
:1E142600C007120441D280900001120441D0070FBF100040B2D2AF2290FFFF0213C69D
:2021DE000080004000200010000800040002000180004000200010000800040002000100E3
:20144400AFF0AE83E5829001A8F0EEA3F0EFA3F09001A8E0FDA3E0FEA3E0FF9001ABEDF0F3
:20146400EEA3F0EFA3F07E007F009001ABE0FBA3E0FCA3E0FD9001A6E0F9A3E0FAC3EE997B
:20148400EF9A4002801A9001A5E0FA8B828C838DF0121F03A3AB82AC830EBE00D80F80D5FF
:2014A4009001A8E0FDA3E0FEA3E0FF8D828E838FF022AFF0AE83E5829001B3F0EEA3F0EF73
:2014C400A3F09001B3E0FDA3E0FEA3E0FF9001B6EDF0EEA3F0EFA3F09001AEE0FDA3E0FE8D
:2014E400A3E0FF9001B9EDF0EEA3F0EFA3F07E007F009001B1E0FCA3E0FDC3EE9CEF9D4088
:2015040002803C9001B6E0FBA3E0FCA3E0FDEE2BFBEF3CFC9001B9E0F8A3E0F9A3E0FAEEA4
:2015240028F8EF39F9888289838AF0121F3EF88B828C838DF0121F030EBE00B60F80B3904E
:2015440001B3E0FDA3E0FEA3E0FF8D828E838FF022AFF0AE83E5829001C1F0EEA3F0EFA3A6
:20156400F09001C1E0FDA3E0FEA3E0FF9001C4EDF0EEA3F0EFA3F09001BCE0FDA3E0FEA3C2
:20158400E0FF9001C7EDF0EEA3F0EFA3F0E4F514F515AC14AD159001BFE0FAA3E0FBC3EC60
:2015A4009AED9B400302163E9001C4E0F9A3E0FAA3E0FBEC29F9ED3AFA89828A838BF0126F
:2015C4001F3EF99001C7E0F8A3E0FAA3E0FBEC28F8ED3AFA88828A838BF0121F3EF8E9B5C2
:2015E4000002804A9001C4E0F9A3E0FAA3E0FBE51429F9E5153AFA89828A838BF0121F3EA7
:20160400F97B009001C7E0F8A3E0FAA3E0FFE51428F8E5153AFA88828A838FF0121F3EF8DF
:201624007F00E9C398F9EB9FFB89828B83220CBC00010D8C148D1502159A90000022AFF010
:20164400AE83E5829001CDF0EEA3F0EFA3F07E007F009001CAE0FBA3E0FCA3E0FDEE2BFB57
:20166400EF3CFC8B828C838DF0121F3EFB603C9001CDE0FBA3E0FCA3E0FDEE2BFBEF3CFC2D
:201684009001CAE0F8A3E0F9A3E0FAEE28F8EF39F9888289838AF0121F3EF88B828C838D4B
:2016A400F0121F030EBE00AA0F80A79001CDE0FDA3E0FEA3E0FF8D828E838FF022AFF0AE0A
:2016C40083E5829001D1F0EEA3F0EFA3F09001D1E0FDA3E0FEA3E0FF8D828E838FF0121FB5
:2016E4003EFC60120DBD00010E9001D1EDF0EEA3F0EFA3F080E29001D1EDF0EEA3F0EFA36B
:20170400F09001D1E0FDA3E0FEA3E0FF9001D0E08D828E838FF0121F039001D174012DF08B
:20172400E43EA3F0EFA3F09001D1E0FDA3E0FEA3E0FF8D828E838FF0E4121F038D828E8355
:031744008FF02201
:201747009001D47498F07408A3F075D800F5D975DA4975E90075F90075EA4C75FA04C2DED5
:2017670022C0E0EEC0E0E582AE8314000000000070F8EE601174FE00000000001400000019
:20178700000070F8DEEFD0E0FED0E022AF83E58290036DF0EFA3F090036DE0FEA3E0FF9092
:2017A700039EEEF0EFA3F0900190121F1EAE82AF837D009001D6E4F0A3F09001DBF0900117
:2017C700D874DDF07401A3F0E4A3F09001DCF07ADD7B017C009001A5F0A3F09001A67490CA
:2017E700F07401A3F08A828B838CF0C007C006C005121444D005D006D0079001D8E0FAA330
:20180700E0FBA3E0FC900393EAF0EBA3F0ECA3F09003967490F07401A3F08E828F838DF0A6
:20182700121E08E58270028002C2A290036FE4F0A3F090036FE0FEA3E0FF9001D8E0FBA3F8
:20184700E0FCA3E0FDEE2BFBEF3CFC8B828C838DF0121F3E900093F09021FE75F080C00774
:20186700C006120D80D006D0070EBE00010FC3EE9490EF940140C390036DE0FEA3E0900026
:2018870093EEF090220475F080120D80D2DED2AF20DEFD22AF83E582900371F0EFA3F090A9
:2018A70001D6E4F0A3F09001DBF09001D874DDF07401A3F0E4A3F09001DC04F07DDD7E0124
:2018C7007F009001A5E4F0A3F09001A67490F07401A3F08D828E838FF012144420A7FDD213
:2018E700DED2AF20DEFD900373E4F0A3F0900373E0FEA3E0FF900371E0FCA3E0FD90039E23
:20190700ECF0EDA3F0900190C007C006121F1EE5828583F0D006D0072EFCEF35F0FD7B00A5
:201927009001D8E0F8A3E0F9A3E0FA888289838AF0121F3E90037FF08C828D838BF0C00705
:20194700C006121C01E582D006D00770028002C2A29001D8E02401F0A3E03400F00EBE004E
:20196700010FC3EE9490EF9401408A22C2AF9001D6E4F0A3F09001D874DDF07401A3F0E436
:20198700A3F07DDD7E017F009001A5F0A3F09001A67490F07401A3F08D828E838FF01214A4
:2019A7004420A702800890000A12044180F39001D6E0FEA3E0FFC3EE9490EF940140028045
:2019C700399006401217689001D8E0FDA3E0FEA3E0FFA2A7E433FC8D828E838FF0121F03E8
:2019E7009001D8E02401F0A3E03400F09001D6E02401F0A3E03400F080B4D2AF9000002271
:0E21FE00646174613D0063686F6F73653D003E
:201A0700C287900005121768D286900005121768D28790000A121768C28690000A121768DB
:201A2700C287900005121768D28622C287900005121768C286900005121768D287900005EB
:201A4700121768D286900005121768C28722E582900375F0900376E4F0900376E0FF900051
:201A670005C007121768900375E0FE3392029286EE2E900375F0900005121768D28790001A
:201A87000A121768D007C2870FBF080040D0900005121768D286900005121768D287900011
:201AA70005121768A286E433FF900005C007121768D007C2878F8222AFF0AE83E582900341
:201AC70077F0EEA3F0EFA3F0900377E0FDA3E0FEA3E0FF8D828E838FF0E4121F0390037AE7
:201AE7007408F0E0FF90000AC007121768D287900005121768900377E0FCA3E0FDA3E0FE3C
:201B07008C828D838EF0121F3E25E0FB8C828D838EF0121F03A286E43342038C828D838EB3
:201B2700F0EB121F03900005121768D007C2871FEF60027401FEEE70AC900005121768C274
:201B470086900005121768D28790000A121768C287900005121768D28675820022AFF0AE21
:201B670083E58290037BF0EEA3F0EFA3F090037BE0FDA3E0FEA3E0FF8D828E838FF0E412F0
:201B87001F0390037E7408F0E0FF90000AC007121768D28790000512176890037BE0FCA3C2
:201BA700E0FDA3E0FE8C828D838EF0121F3E25E0FB8C828D838EF0121F03A286E433420361
:201BC7008C828D838EF0EB121F03900005121768D007C2871FEF60027401FEEE70AC900080
:201BE70005121768D286900005121768D28790000A121768C28775820022AFF0AE83E582AD
:201C0700900380F0EEA3F0EFA3F0121A079000051204417582A0121A55E58270028007120E
:201C27001A3275820122900381E0F582121A55E58270028007121A3275820122900380E080
:201C4700FDA3E0A3E08D82121A55E58270028007121A327582012290037FE0F582121A5528
:201C6700E58270028007121A3275820122121A3290000512044175820022AFF0AE83E582EB
:201C8700900386F0EEA3F0EFA3F0121A079000051204417582A0121A55E582700280071288
:201CA7001A3275820122900387E0F582121A55E58270028007121A3275820122900386E0F4
:201CC700FDA3E0A3E08D82121A55E58270028007121A3275820122900389E4F0900383E0AC
:201CE700FDA3E0FEA3E0FF900389E0FC8D828E838FF0121F3EF582C007C006C005C0041238
:201D07001A55E582D004D005D006D00770028007121A32758201220DBD00010E0CBC40003E
:201D270040CA121A3290003212044175820022AFF0AE83E58290038DF0EEA3F0EFA3F012A6
:201D47001A32900005120441121A077582A0121A55E58270028007121A327582012290038E
:201D67008EE0F582121A55E58270028007121A327582012290038DE0FDA3E0A3E08D8212FA
:201D87001A55E58270028007121A3275820122121A077582A1121A55E58270028007121A1D
:201DA700327582012290038AE0FDA3E0FEA3E0FF8D828E838FF0121B64121A32758200222C
:201DC700AFF0AE83E582900390F0EEA3F0EFA3F0121A077582A1121A55E5827002800712F1
:201DE7001A3275820122900390E0FDA3E0FEA3E0FF8D828E838FF0121B64121A32758200EE
:201E070022AFF0AE83E582900398F0EEA3F0EFA3F0121A079000051204417582A0121A550D
:201E2700E58270028007121A3275820122900399E0F582121A55E58270028007121A32758C
:201E4700820122900398E0FDA3E0A3E08D82121A55E58270028007121A3275820122121A34
:201E670032900005120441121A077582A1121A55E58270028007121A327582012290039BEB
:201E8700E4F0A3F0900393E0FDA3E0FEA3E0FF90039BE0FBA3E0FC900396E0F9A3E0FA19AE
:201EA700B9FF011AC3EB99EC9A400D900393EDF0EEA3F0EFA3F080298D828E838FF0C00719
:201EC700C006C005C004C003121ABFD003D004D005D006D0070DBD00010E0BBB00B90C80F1
:1C1EE700B6900393E0FDA3E0FEA3E0FF8D828E838FF0121B64121A32758200227C
:06007800E478FFF6D8FD5C
:20005600792BE94400601B7A0190220C78A075A003E493F2A308B8000205A0D9F4DAF27554
:02007600A0FFE9
:1B1F030020F71130F6138883A88220F509F6A8837583002280FEF280F5F022DD
:201F1E00AA83AB828BF090039EE0A4F8A9F08AF0E0A429F98BF0A3E0A429F58388822222D7
:20007E007800E84400600A790175A000E4F309D8FC789FE84403600C7904900001E4F0A3DA
:04009E00D8FCD9FAB7
:0D0049007581F3121F5AE582600302004624
:1C1F3E0020F71430F6148883A88220F507E6A88375830022E280F7E49322E022B2
:041F5A00758200226A
:00000001FF
