:0600000002004902014963
:03000B00020404E8
:030013000201CE19
:03001B00020405D7
:0300230002032AAB
:01002B0032A2
:01003300329A
:03003B0002052C8F
:0300430002025B5B
:0300A20002004613
:0300460002077836
:2000A500AF83E582900001F0EFA3F0900001E0FEA3E0FFBE0005BF0002803390000374E888
:2000C500F07403A3F0900003E0FCA3E0FD1CBCFF011DEC4D60047B0180027B00EB70EE1EC0
:2000E500BEFF011F900001EEF0EFA3F080C5900001EEF0EFA3F022900005E0FEA3E0FFC31D
:20010500EE9402EF940040028010900005E02401F0A3E03400F0C2AF800280FE22900005A8
:20012500E0F5F0A3E045F070028016900005E024FFFEA3E034FFFF900005EEF0EFA3F08075
:2001450002D2AF22C021C0E0C0F0C082C083C007C006C005C004C003C002C001C000C0D093
:2001650075D008C2AF758223758301E004F078EE8682088683E581F078DAE885E081900050
:200185006475D0001200A575D008B2A320B202800975D00012147275D00890000175D000FB
:2001A50012185475D00012147275D008D0D0D000D001D002D003D004D005D006D007D08303
:2001C500D082D0F0D0E0D02132C021C0E0C0F0C082C083C007C006C005C004C003C002C024
:2001E50001C000C0D075D008C2AF758223758301E004F078EE8682088683E581F078DAE8F5
:2002050085E08190006475D0001200A575D00820B302800975D00012147275D00890020498
:20022500E070028002801290000275D00012185475D00012147275D008D0D0D000D001D0C3
:2002450002D003D004D005D006D007D083D082D0F0D0E0D02132C021C0E0C0F0C082C08380
:20026500C007C006C005C004C003C002C001C000C0D075D008C2AF758223758301E004F028
:2002850078EE8682088683E581F078DAE885E081E59A20E102800B539AFD90000F7401F069
:2002A500805D539AFC90009AE0FEA3E0FF90009CE0FCA3E0FDEEB50C0EEFB50D0A90009ABF
:2002C500742EF07400A3F090009AE0FEA3E0FF8E828F83E59BF090009AE0FEA3E0FF8E82CA
:2002E5008F83E0FEBE0D0C90000E75D00012185475D00890009AE02401F0A3E03400F07549
:20030500D00012147275D008D0D0D000D001D002D003D004D005D006D007D083D082D0F082
:20032500D0E0D02132C021C0E0C0F0C082C083C007C006C005C004C003C002C001C000C053
:20034500D075D008C2AF758223758301E004F078EE8682088683E581F078DAE885E081200E
:2003650098030203D6C2989003A7E0FEA3E0FF9003A9E0FCA3E0FDEEB50C0EEFB50D0A906E
:2003850003A7745BF07401A3F09003A7E0FEA3E0FF8E828F83E599F09003A7E0FEA3E0FF23
:2003A5008E828F83E0F5998E828F83E0FEBE0D0C90000F75D00012185475D0089003A7E008
:2003C500FEA3E0FF9003A774012EF0E43FA3F08008C2999001507401F075D000121472759A
:2003E500D008D0D0D000D001D002D003D004D005D006D007D083D082D0F0D0E0D02132327A
:20040500C0E0C0F0C082C083C0D075D008900204E070030204AC9001FEE0FEA3E0FFC3EEEA
:200425009490EF940140030204A5900203E0FFBF0800401D900203E4F0900200E02401F099
:20044500A3E03400F09001FEE02401F0A3E03400F0900203E02401F0900200E0FDA3E0FE4B
:20046500A3E0FF8D828E838FF0121F3E25E08D828E838FF0121F03900200E0FDA3E0FEA37C
:20048500E0FF8D828E838FF0121F3EFCA2A7E433FB420C8D828E838FF0EC121F03020521DE
:2004A500C28EC28C0205219001FEE0FEA3E0FFC3EE9490EF94014002805E900203E0FFBFD6
:2004C5000800401D900200E02401F0A3E03400F09001FEE02401F0A3E03400F0900203E4E0
:2004E500F0900200E0FDA3E0FEA3E0FF8D828E838FF0121F3E339200928C8D828E838FF005
:20050500121F3E25E0FC8D828E838FF0121F03900203E02401F08004C28EC28CD0D0D083F4
:20052500D082D0F0D0E032C0E0C0F0C082C083C0D075D008C2D89001FCE0FEA3E0FF8EEA11
:200545008FFA9001FC744C2EF074043FA3F0900204E070030205F29001FEE0FEA3E0FFC3C4
:20056500EE9490EF940140030205E6900203E0FFBF0800401D900203E4F0900200E0240118
:20058500F0A3E03400F09001FEE02401F0A3E03400F0900203E02401F0900200E0FDA3E018
:2005A500FEA3E0FF8D828E838FF0121F3E25E08D828E838FF0121F03900200E0FDA3E0FEE0
:2005C500A3E0FF8D828E838FF0121F3EFCA2A7E433FB420C8D828E838FF0EC121F0302061A
:2005E50067C2DEC28C900204E4F00206679001FEE0FEA3E0FFC3EE9490EF94014002805E60
:20060500900203E0FFBF0800401D900200E02401F0A3E03400F09001FEE02401F0A3E034D4
:2006250000F0900203E4F0900200E0FDA3E0FEA3E0FF8D828E838FF0121F3E339201928CF8
:200645008D828E838FF0121F3E25E0FC8D828E838FF0121F03900203E02401F08004C2DE05
:20066500C28CD0D0D083D082D0F0D0E032B2A39001F41200A580F6AD81E4FEFFED24FEFD1E
:20068500EE34FFFE900007EDF0EEA3F0EFA3F090000AF0A3F090000AE0FEA3E0FF90000711
:2006A500E0FBA3E0FCA3E0FD8B008C018D02900155E8F0901F5E75F080C007C006C005C0F2
:2006C50004C003121565D003D004D005D006D0078B828C838DF0121F3E900155F0901F62AA
:2006E50075F080C007C006C005C004C003121565D003D004D005D006D007900155EEF0902E
:200705001F6775F080C007C006C005C004C003121565D003D004D005D006D0071BBBFF0105
:200725001C0EBE00010FC3EE9414EF940050030206AD22758C72758A72758F01438EC075C7
:20074500892222C28290012C1200A5D28222D2AAD28AD2A8D28875B80222900005E4F0A390
:20076500F0120738120748121C4312170D1209B502075312075F1213517D727E067F80900F
:2007850001477407F0E4A3F08D828E838FF0121283120BFE1213AF901F6A75F0801214FBD6
:0307A50080F522BA
:1A1F5E0053503D004053503D00693D007377697463685F6661696C0D0A001F
:02220C0034128A
:2007A800C013858113E51324FBFF90000FE4F0E51324FBF886040886050886068C828D83DE
:2007C8008EF0121F3EFCBC2554E51324FBF806B600020806E51324FBF8860408860508865E
:2007E800068C828D838EF0121F3EFC7E00BC786ABE0067EF14FEFF8E01879BE51324FBF8E3
:2008080006B60002080690000FE07007E59A20E10280F3539AFD90000FE4F0803DE51324E3
:20082800FBF886040886050886068C828D838EF0121F3EF59BE51324FBF874012CF6E43DAA
:2008480008F608A60690000FE07007E59A20E10280F390000FE4F0539AFDE51324FBF88601
:20086800040886050886068C828D838EF0121F3E60030207B7900000D01322AFF0AE83E5CD
:200888008290009FF0EEA3F0EFA3F0C2AF9000A2E4F090009FE0FDA3E0FEA3E0FF9000A2F4
:2008A800E0FC90009EE07A0024FDFBEA34FFFA8C007900C3E89BE964808AF063F08095F0AF
:2008C8004003020955900098E0FAA3E0FB8A828B83E0FABA0D028057900098E0FAA3E0FBD9
:2008E80090009CE0F8A3E0F9EAB5000EEBB5010A900098742EF07400A3F0900098E0FAA3B2
:20090800E0FB8A828B83E0FA8D828E838FF0121F03A3AD82AE8390009FEDF0EEA3F0EFA30B
:20092800F0900098E02401F0A3E03400F0801A900098E02401F0A3E03400F0900098E02471
:2009480001F0A3E03400F080040C0208AA90009FE0FDA3E0FEA3E0FF8D828E838FF0740D84
:20096800121F0390009F74012DF0E43EA3F0EFA3F090009FE0FDA3E0FEA3E0FF8D828E8314
:200988008FF0740A121F0390009F74012DF0E43EA3F0EFA3F090009FE0FDA3E0FEA3E0FF17
:2009A8008D828E838FF0E4121F03D2AF22759A5075AF01759CFD438E149000947410F07452
:2009C80000A3F09000927410F07400A3F0900096741D2410F0E43400A3F090009A742EF09D
:2009E8007400A3F0900098742EF07400A3F090009C7463242EF0E43400A3F090000E121770
:0B0A08006A90000E1217979000002269
:200A1300AF83E5829000A3F0EFA3F0C2AFC28290012C1200A5D2829000141200A59000A578
:200A3300E4F09000A5E0FFC280900001C0071200A5D007EF75F002A42478F582741F35F0CE
:200A5300F583E493FDA3E493FE9000A3E0FBA3E0FCEB5205EC5206ED4E24FF92819000016A
:1E0A7300C0071200A5D2809000011200A5D0070FBF100040B2D2AF2290FFFF020A1356
:201F780000800040002000100008000400020001800040002000100008000400020001004B
:200A910090000012176A900000121797C2A09000A6E4F09000A6E0FF9003E8C0071200A558
:200AB100D0070FBF010040F0D2A090000012179780DA22B2A19000A7E4F09000A7E0FF900D
:200AD10003E8C0071200A5D0070FBF010040F0B2A190000012185480DA90000F121797901C
:200AF10001BF7432F09000A875F0001215F174A8C0E07400C0E0E4C0E01207A81581158199
:200B1100158180D59003E81200A57498C0E0741FC0E07480C0E01207A81581158115819021
:200B310000011200A574A6C0E0741FC0E07480C0E01207A815811581158190000E1217978A
:200B510090009E7432F09000AD75F0001208839000AD75F0001214FB80E022900001121782
:200B71006A9003A2E4F09000011217979000011217979003A2E0FF7E008F828E83120A136C
:200B91009000011217979003A2E0FFBF0800400280099003A2E02401F080059003A2E4F095
:200BB1009003A2E0FF7E008F828E83120A1380D090000212176A90000212179790000212D6
:200BD1001797C2AF20B5109003A2E0FF7E008F828E83121D97800E9003A2E0FF7E008F8255
:200BF1008E83121C8F90000A120A1380CF7D157E0B7F809001477403F0E4A3F08D828E830E
:200C11008FF01212837D6C7E0B7F80900147E4F0A3F08D828E838FF01212837DC17E0B7F61
:130C3100809001477401F0E4A3F08D828E838FF002128346
:1F1F980041542B4349504D55583D310D0A0041542B4349505345525645523D310D0A0017
:01220E0000CF
:200C4400C287900005121C64D286900005121C64D28790000A121C64C28690000A121C64A8
:200C6400C287900005121C64D28622C287900005121C64C286900005121C64D287900005B9
:200C8400121C64D286900005121C64C28722E5829000DFF09000E0E4F09000E0E0FF9000EB
:200CA40005C007121C649000DFE0FE3392029286EE2E9000DFF0900005121C64D28790001B
:200CC4000A121C64D007C2870FBF080040D0900005121C64D286900005121C64D2879000DF
:200CE40005121C64A286E433FF900005C007121C64D007C2878F8222AFF0AE83E582900013
:200D0400E1F0EEA3F0EFA3F09000E1E0FDA3E0FEA3E0FF8D828E838FF0E4121F039000E47F
:200D24007408F0E0FF90000AC007121C64D287900005121C649000E1E0FCA3E0FDA3E0FEA3
:200D44008C828D838EF0121F3E25E0FB8C828D838EF0121F03A286E43342038C828D838E84
:200D6400F0EB121F03900005121C64D007C2871FEF60027401FEEE70AC900005121C64C243
:200D840086900005121C64D28790000A121C64C287900005121C64D28675820022AFF0AEEF
:200DA40083E5829000E5F0EEA3F0EFA3F09000E5E0FDA3E0FEA3E0FF8D828E838FF0E412F3
:200DC4001F039000E87408F0E0FF90000AC007121C64D287900005121C649000E5E0FCA3C3
:200DE400E0FDA3E0FE8C828D838EF0121F3E25E0FB8C828D838EF0121F03A286E433420332
:200E04008C828D838EF0EB121F03900005121C64D007C2871FEF60027401FEEE70AC90004F
:200E240005121C64D286900005121C64D28790000A121C64C28775820022AFF0AE83E5827A
:200E44009000EAF0EEA3F0EFA3F0120C449000051200A57582A0120C92E5827002800712BA
:200E64000C6F758201229000EBE0F582120C92E58270028007120C6F758201229000EAE0F6
:200E8400FDA3E0A3E08D82120C92E58270028007120C6F758201229000E9E0F582120C9205
:200EA400E58270028007120C6F75820122120C6F9000051200A575820022AFF0AE83E582FE
:200EC4009000F0F0EEA3F0EFA3F0120C449000051200A57582A0120C92E582700280071234
:200EE4000C6F758201229000F1E0F582120C92E58270028007120C6F758201229000F0E06A
:200F0400FDA3E0A3E08D82120C92E58270028007120C6F758201229000F3E4F09000EDE050
:200F2400FDA3E0FEA3E0FF9000F3E0FC8D828E838FF0121F3EF582C007C006C005C00412A1
:200F44000C92E582D004D005D006D00770028007120C6F758201220DBD00010E0CBC4000B1
:200F640040CA120C6F9000321200A575820022AFF0AE83E5829000F7F0EEA3F0EFA3F01281
:200F84000C6F9000051200A5120C447582A0120C92E58270028007120C6F75820122900046
:200FA400F8E0F582120C92E58270028007120C6F758201229000F7E0FDA3E0A3E08D82129C
:200FC4000C92E58270028007120C6F75820122120C447582A1120C92E58270028007120C40
:200FE4006F758201229000F4E0FDA3E0FEA3E0FF8D828E838FF0120DA1120C6F75820022FB
:20100400AFF0AE83E5829000FAF0EEA3F0EFA3F0120C447582A1120C92E5827002800712FC
:201024000C6F758201229000FAE0FDA3E0FEA3E0FF8D828E838FF0120DA1120C6F758200CA
:2010440022AFF0AE83E582900102F0EEA3F0EFA3F0120C449000051200A57582A0120C92B8
:20106400E58270028007120C6F75820122900103E0F582120C92E58270028007120C6F7568
:20108400820122900102E0FDA3E0A3E08D82120C92E58270028007120C6F75820122120C4D
:2010A4006F9000051200A5120C447582A1120C92E58270028007120C6F758201229001052A
:2010C400E4F0A3F09000FDE0FDA3E0FEA3E0FF900105E0FBA3E0FC900100E0F9A3E0FA1948
:2010E400B9FF011AC3EB99EC9A400D9000FDEDF0EEA3F0EFA3F080298D828E838FF0C00783
:20110400C006C005C004C003120CFCD003D004D005D006D0070DBD00010E0BBB00B90C8092
:1C112400B69000FDE0FDA3E0FEA3E0FF8D828E838FF0120DA1120C6F7582002287
:201140009003A3E0FEA3E0FFBE0171BF006EC2AF900107E0FEA3E0CE25E0CE33FFEE24B796
:20116000F582EF341FF583E493FEA3E49390013CEEF0900109E0FDA3E0FF7C00EEB5050ADD
:20118000ECB50706D2AF9000012290013CE0FF75F003A42424F582740135F0F58378F1E09B
:2011A000F6A3E008F6A3E008F6900109EFF0E4A3F0900123E0700312140BD2AF90000022DC
:2011C000AFF0AE83E58290013FF0EEA3F0EFA3F090013DE0FEA3E0EE75F017A42422F99009
:2011E000013FE0FDA3E0FEA3E08D04A704E904F88E05A605740F29FF7E007D408F828E8367
:201200008DF022AFF0AE83E582900144F0EEA3F0EFA3F0900142E0FEA3E0FF90039EEEF0EE
:20122000EFA3F0900003C007C006121F1EAC82AD83D006D007EC2424FCED3401FD8C828DC8
:2012400083E0F510A3E0F511A3E0F512900144E0F8A3E0FAA3E08510828511838512F0E8C7
:20126000121F038C828D83E0FCA3E0FDA3E0FB0CBC00010D8C828D838BF0EE121F03A3EF1F
:20128000021F03AFF0AE83E582900149F0EEA3F0EFA3F0900149E0FDA3E0FEA3E0FF9001DB
:2012A00047E0FBA3E0FC90013DEBF0ECA3F08D828E838FF0C004C0031211C0AD82AE83AF4D
:2012C000F0D003D004900142EBF0ECA3F08D828E838FF0C004C003121203D003D004ECCB9F
:2012E00025E0CB33FCEB24B7F582EC3421F583E493FEA3E493FF900107E0FCA3E0FD9001E6
:2013000007EE4CF0EF4DA3F0021140AF83E58290014CF0EFA3F0C2AF90014CE0FEA3E0CE15
:2013200025E0CE33FFEE24B7F582EF3421F583E493FEA3E493FFEEF4FEEFF4FF900107E0E4
:20134000FCA3E0FD900107EE5CF0EF5DA3F0D2AF22900107E4F0A3F0900123F090014EF04B
:20136000A3F090014EE0FEA3E0FF90039EEEF0EFA3F0900003C007C006121F1EAC82AD833D
:20138000D006D007EC2424F582ED3401F583EC240BFCED3401FD7B00ECF0EDA3F0EBA3F0D0
:2013A0000EBE00010FC3EE9408EF940040BC22900107E0FEA3E0CE25E0CE33FFEE24B7F5D9
:2013C00082EF341FF583E493FEA3E4939003A37401F0E4A3F0EE75F003A42424F582740102
:2013E00035F0F583E0FCA3E0FDA3E0FF78F1A60408A60508A607900109EEF0E4A3F078EEA2
:0B140000A60408A60508A60702143980
:201FB7000000000001000000020000000100000003000000010000000200000001000000FF
:201FD7000400000001000000020000000100000003000000010000000200000001000000DB
:201FF7000500000001000000020000000100000003000000010000000200000001000000BA
:2020170004000000010000000200000001000000030000000100000002000000010000009A
:20203700060000000100000002000000010000000300000001000000020000000100000078
:2020570004000000010000000200000001000000030000000100000002000000010000005A
:20207700050000000100000002000000010000000300000001000000020000000100000039
:2020970004000000010000000200000001000000030000000100000002000000010000001A
:2020B7000700000001000000020000000100000003000000010000000200000001000000F7
:2020D7000400000001000000020000000100000003000000010000000200000001000000DA
:2020F7000500000001000000020000000100000003000000010000000200000001000000B9
:20211700040000000100000002000000010000000300000001000000020000000100000099
:20213700060000000100000002000000010000000300000001000000020000000100000077
:20215700040000000100000002000000010000000300000001000000020000000100000059
:20217700050000000100000002000000010000000300000001000000020000000100000038
:20219700040000000100000002000000010000000300000001000000020000000100000019
:1021B7000100020004000800100020004000800019
:02220F000000CD
:20140B000581C0E0C0F0C082C083EFC0E0EEC0E0EDC0E0ECC0E0EBC0E0EAC0E0E9C0E0E8AA
:20142B00C0E0C0D079EE8782098783E581F079EE78F18682A78208098683A783E085E0818D
:20144B00D0D0D0E0F8D0E0F9D0E0FAD0E0FBD0E0FCD0E0FDD0E0FED0E0FFD083D082D0F020
:20146B00D0E01581D2AF22758223758301E014F079EE78F18682A78208098683A783E085D7
:20148B00E081D0D0D0E0F8D0E0F9D0E0FAD0E0FBD0E0FCD0E0FDD0E0FED0E0FFD083D0823F
:2014AB00D0F0D0E01581D2AF320581C0E0C0F0C082C083EFC0E0EEC0E0EDC0E0ECC0E0EBEC
:1114CB00C0E0EAC0E0E9C0E0E8C0E0C0D0AE82AF83E3
:2014DC00E582900151F0E0F599209908900150E0700280F5C299900150A299E433F022AF91
:2014FC00F0AE83E582900152F0EEA3F0EFA3F0900150E4F0900152E0FDA3E0FEA3E0FF8D6D
:20151C00828E838FF0121F3EF599A3AD82AE83900152EDF0EEA3F0EFA3F020990890015038
:20153C00E0700280F5C299900150A299E433F08D828E838FF0121F3E70C5900152EDF0EE59
:20155C00A3F0EFA3F090000022AFF0AE83E582900156F0EEA3F0EFA3F0900156E0FDA3E050
:20157C00FEA3E0FF8D828E838FF01214FB7582301214DC7582781214DC900155E0C4540F88
:20159C00900159F090015AE4F090015AE0FF900159E0FEBE0A0040028011900159E024304B
:2015BC00F582C0071214DCD007800F900159E02437F582C0071214DCD007900155E0FE90D9
:2015DC000159740F5EF00FBF020040C29021C775F0800214FBAFF0AE83E5829001C0F0EE1E
:2015FC00A3F0EFA3F0C2AF9003A5E0FEA3E0FF9001C4EEF0EFA3F0E4A3F09001C3F09001B0
:20161C00C0E0FDA3E0FEA3E0FF9001C3E0FC9001BFE07A0024FDFBEA34FFFA8C007900C339
:20163C00E89BE964808AF063F08095F050499003A5E0FAA3E0FB8A828B83E0FABA0D028006
:20165C00369003A5E0FAA3E0FB8A828B83E0FA8D828E838FF0121F03A3AD82AE839001C08D
:20167C00EDF0EEA3F0EFA3F09003A5E02401F0A3E03400F00C80979001C0E0FDA3E0FEA325
:20169C00E0FF8D828E838FF0740D121F039001C074012DF0E43EA3F0EFA3F09001C0E0FDB3
:2016BC00A3E0FEA3E0FF8D828E838FF0740A121F039001C074012DF0E43EA3F0EFA3F09010
:2016DC0001C0E0FDA3E0FEA3E0FF8D828E838FF0E4121F03D2AF9001C4E0FDA3E0FEA3E0DF
:2016FC009003A5E0FBA3E0FCEBC39DFDEC9E8D8222438EC0758922438780759850758DFDE2
:20171C00758BFDD28EC2ABD2AC9001CDE4F09001CE74BFF0E4A3F090015B75F0001219407E
:20173C0090000F12176A90000F1217979003A5745BF07401A3F09003A7745BF07401A3F0FC
:0E175C009003A97463245BF0E43401A3F0222F
:0321C7000A0D00FE
:062211005B015B01BE0150
:20176A00AF83E5829001C7F0EFA3F09001C7E0FEA3E0FFEE24ABF582EF3403F5837401F00D
:20178A00EE24BBF582EF3403F583E4F022AF83E5829001C9F0EFA3F09001C9E0FEA3E0FF48
:2017AA00C374109EE49F50179001C9E0FEA3E0900155EEF09021CA75F08012156580FE90D7
:2017CA0001C9E0FEA3E0FFEE24ABF582EF3403F583E0FFBF01159001C9E0FEA3E0FFEE2483
:2017EA00ABF582EF3403F583E4F022C2AF900109E0FEA3E0CE25E0CE33FFEE24B7F582EFBB
:20180A003421F583E493FEA3E493FFEEF4FCEFF4FD900107E0FAA3E0FB900107EC5AF0EDFA
:20182A005BA3F09001C9E0FCA3E0FDEC24BBFCED3403FD8C828D83E07A004206EA42078C93
:20184A00828D83EEF0D2AF021140AF83E5829001CBF0EFA3F09001CBE0FEA3E0FFC37410D0
:20186A009EE49F400280179001CBE0FEA3E0900155EEF09021E275F08012156580FE9001D0
:20188A00CBE0FEA3E0FFEE24ABFEEF3403FF8E828F83E0600302193FC2AF9001CBE0FEA326
:2018AA00E0FFEE24BBFEEF3403FF8E828F83E070189001CBE0FEA3E0FFEE24ABF582EF34B2
:2018CA0003F5837401F0D2AF229001CBE0FEA3E0FFEE24BBFEEF3403FF8E828F83E0FD755B
:2018EA00F002A424B7F582741F35F0F583E493FBA3E493CB25E0CB33FCEB24B7FBEC34216E
:20190A00FC8B828C83E493F9A3E493E9F452058E828F83EDF08B828C83E493FBA3E493FC44
:16192A00900107E0FEA3E0FF900107EB4EF0EC4FA3F0121140229B
:2021CA006E3E31362C696E206765745F73656D6170686F72652829006E3E31362C696E20D5
:1421EA0072656C656173655F73656D6170686F72652829008C
:202217000000000000000000000000000000000000000000000000000000000000000000A7
:20194000AFF0AE83E5829001D0F0EEA3F0EFA3F09001D0E0FDA3E0FEA3E0FF9001D3EDF07A
:20196000EEA3F0EFA3F07E007F009001D3E0FBA3E0FCA3E0FD9001CEE0F9A3E0FAC3EE992A
:20198000EF9A4002801A9001CDE0FA8B828C838DF0121F03A3AB82AC830EBE00D80F80D5D6
:2019A0009001D0E0FDA3E0FEA3E0FF8D828E838FF022AFF0AE83E5829001DBF0EEA3F0EF22
:2019C000A3F09001DBE0FDA3E0FEA3E0FF9001DEEDF0EEA3F0EFA3F09001D6E0FDA3E0FE14
:2019E000A3E0FF9001E1EDF0EEA3F0EFA3F07E007F009001D9E0FCA3E0FDC3EE9CEF9D4037
:201A000002803C9001DEE0FBA3E0FCA3E0FDEE2BFBEF3CFC9001E1E0F8A3E0F9A3E0FAEE53
:201A200028F8EF39F9888289838AF0121F3EF88B828C838DF0121F030EBE00B60F80B3904D
:201A400001DBE0FDA3E0FEA3E0FF8D828E838FF022AFF0AE83E5829001E9F0EEA3F0EFA355
:201A6000F09001E9E0FDA3E0FEA3E0FF9001ECEDF0EEA3F0EFA3F09001E4E0FDA3E0FEA349
:201A8000E0FF9001EFEDF0EEA3F0EFA3F0E4F514F515AC14AD159001E7E0FAA3E0FBC3EC0F
:201AA0009AED9B4003021B3A9001ECE0F9A3E0FAA3E0FBEC29F9ED3AFA89828A838BF01245
:201AC0001F3EF99001EFE0F8A3E0FAA3E0FBEC28F8ED3AFA88828A838BF0121F3EF8E9B599
:201AE0000002804A9001ECE0F9A3E0FAA3E0FBE51429F9E5153AFA89828A838BF0121F3E7E
:201B0000F97B009001EFE0F8A3E0FAA3E0FFE51428F8E5153AFA88828A838FF0121F3EF8B6
:201B20007F00E9C398F9EB9FFB89828B83220CBC00010D8C148D15021A9690000022AFF00E
:201B4000AE83E5829001F5F0EEA3F0EFA3F07E007F009001F2E0FBA3E0FCA3E0FDEE2BFB06
:201B6000EF3CFC8B828C838DF0121F3EFB603C9001F5E0FBA3E0FCA3E0FDEE2BFBEF3CFC04
:201B80009001F2E0F8A3E0F9A3E0FAEE28F8EF39F9888289838AF0121F3EF88B828C838D22
:201BA000F0121F030EBE00AA0F80A79001F5E0FDA3E0FEA3E0FF8D828E838FF022AFF0AEE1
:201BC00083E5829001F9F0EEA3F0EFA3F09001F9E0FDA3E0FEA3E0FF8D828E838FF0121F64
:201BE0003EFC60120DBD00010E9001F9EDF0EEA3F0EFA3F080E29001F9EDF0EEA3F0EFA31A
:201C0000F09001F9E0FDA3E0FEA3E0FF9001F8E08D828E838FF0121F039001F974012DF012
:201C2000E43EA3F0EFA3F09001F9E0FDA3E0FEA3E0FF8D828E838FF0E4121F038D828E832C
:031C40008FF02200
:201C43009001FC7498F07408A3F075D800F5D975DA4975E90075F90075EA4C75FA04C2DEAC
:201C630022C0E0EEC0E0E582AE8314000000000070F8EE601174FE00000000001400000018
:201C8300000070F8DEEFD0E0FED0E022AF83E582900395F0EFA3F0900395E0FEA3E0FF9041
:201CA300039EEEF0EFA3F0900190121F1EAE82AF837D009001FEE4F0A3F0900203F09002C4
:201CC300007405F07402A3F0E4A3F0900204F07A057B027C009001CDF0A3F09001CE7490D6
:201CE300F07401A3F08A828B838CF0C007C006C005121940D005D006D007900200E0FAA305
:201D0300E0FBA3E0FC9000FDEAF0EBA3F0ECA3F09001007490F07401A3F08E828F838DF0D6
:201D2300121045E58270028002C2A2900397E4F0A3F0900397E0FEA3E0FF900200E0FBA34F
:201D4300E0FCA3E0FDEE2BFBEF3CFC8B828C838DF0121F3E900155F09021FE75F080C007B0
:201D6300C006121565D006D0070EBE00010FC3EE9490EF940140C3900395E0FEA3E090010F
:201D830055EEF090220475F080121565D2DED2AF20DEFD22AF83E582900399F0EFA3F090D1
:201DA30001FEE4F0A3F0900203F09002007405F07402A3F0E4A3F090020404F07D057E022E
:201DC3007F009001CDE4F0A3F09001CE7490F07401A3F08D828E838FF012194020A7FDD2C1
:201DE300DED2AF20DEFD90039BE4F0A3F090039BE0FEA3E0FF900399E0FCA3E0FD90039EAA
:201E0300ECF0EDA3F0900190C007C006121F1EE5828583F0D006D0072EFCEF35F0FD7B00A4
:201E2300900200E0F8A3E0F9A3E0FA888289838AF0121F3E9000E9F08C828D838BF0C00774
:201E4300C006120E3EE582D006D00770028002C2A2900200E02401F0A3E03400F00EBE00F5
:201E6300010FC3EE9490EF9401408A22C2AF9001FEE4F0A3F09002007405F07402A3F0E4BB
:201E8300A3F07D057E027F009001CDF0A3F09001CE7490F07401A3F08D828E838FF0121925
:201EA3004020A702800890000A1200A580F39001FEE0FEA3E0FFC3EE9490EF9401400280C0
:201EC30039900640121C64900200E0FDA3E0FEA3E0FFA2A7E433FC8D828E838FF0121F03BD
:201EE300900200E02401F0A3E03400F09001FEE02401F0A3E03400F080B4D2AF900000221F
:0E21FE00646174613D0063686F6F73653D003E
:06007800E478FFF6D8FD5C
:20005600792BE94400601B7A0190220C78A075A003E493F2A308B8000205A0D9F4DAF27554
:02007600A0FFE9
:1B1F030020F71130F6138883A88220F509F6A8837583002280FEF280F5F022DD
:201F1E00AA83AB828BF090039EE0A4F8A9F08AF0E0A429F98BF0A3E0A429F58388822222D7
:20007E007800E84400600A790175A000E4F309D8FC789FE84403600C7904900001E4F0A3DA
:04009E00D8FCD9FAB7
:0D0049007581F3121F5AE582600302004624
:1C1F3E0020F71430F6148883A88220F507E6A88375830022E280F7E49322E022B2
:041F5A00758200226A
:00000001FF
